:100000000C945D000C9485000C9485000C94850084
:100010000C9485000C9485000C9485000C9485004C
:100020000C9485000C9485000C9485000C9485003C
:100030000C9485000C9485000C9485000C9485002C
:100040000C9438050C9485000C9485000C94850064
:100050000C9485000C9485000C9485000C9485000C
:100060000C9482050C948500000000080002010039
:100070000003040700000000000000000000000072
:10008000250028002B0000000000240027002A0083
:10009000040404040404040402020202020203032E
:1000A0000303030301020408102040800102040836
:1000B0001020010204081020A10611241FBECFEF5A
:1000C000D8E0DEBFCDBF11E0A0E0B1E0EEE3F2E1A9
:1000D00002C005900D92AC33B107D9F722E0ACE332
:1000E000B1E001C01D92A932B207E1F710E0CDE501
:1000F000D0E004C02197FE010E941709CC35D1073A
:10010000C9F70E94CF060C941D090C94000090E0E2
:10011000FC01EC55FF4F249180579F4FFC018491C7
:10012000882399F090E0880F991FFC01EA57FF4F50
:10013000A591B491FC01E458FF4F859194918FB73C
:10014000F894EC91E22BEC938FBF089590E0FC01C2
:10015000E859FF4F2491FC01EC55FF4F3491FC010D
:10016000E057FF4FE491EE23C9F0222339F023300A
:1001700001F1A8F4213019F1223029F1F0E0EE0F5D
:10018000FF1FE458FF4FA591B4918FB7F894EC91FD
:10019000611126C030953E233C938FBF08952730D0
:1001A000A9F02830C9F0243049F7809180008F7D74
:1001B00003C0809180008F7780938000DFCF84B56B
:1001C0008F7784BDDBCF84B58F7DFBCF8091B0006E
:1001D0008F778093B000D2CF8091B0008F7DF9CF20
:1001E0003E2BDACF3FB7F8948091B1019091B201E4
:1001F000A091B301B091B40126B5A89B05C02F3FD3
:1002000019F00196A11DB11D3FBFBA2FA92F982F3C
:100210008827BC01CD01620F711D811D911D42E037
:10022000660F771F881F991F4A95D1F708958F92FF
:100230009F92AF92BF92CF92DF92EF92FF920E9475
:10024000F2004B015C0188EEC82E83E0D82EE12C31
:10025000F12C0E94F200681979098A099B09683E0D
:10026000734081059105A8F321E0C21AD108E10885
:10027000F10888EE880E83E0981EA11CB11CC11401
:10028000D104E104F10429F7FF90EF90DF90CF90C3
:10029000BF90AF909F908F90089508950895AF926A
:1002A000BF92CF92DF92EF92FF920F931F93CF9363
:1002B000DF936C017B018B01040F151FEB015E01C5
:1002C000AE18BF08C017D10759F06991D601ED915A
:1002D000FC910190F081E02DC6010995892B79F7F9
:1002E000C501DF91CF911F910F91FF90EF90DF90AB
:1002F000CF90BF90AF900895089520915D01260F93
:100300003327331F21323105ECF42091DB01FC014E
:1003100090E080E0243069F082E00895A0915D01D2
:100320002191AC01435C5E4FA40FB52FB11D2C93FE
:100330000196861798F380915D01680F60935D01C7
:1003400080E0089581E008951092DB0181E08093C0
:10035000DA011092B50161E082E10E94A60061E03D
:1003600083E10E94A600E9EBF0E080818E7F80832C
:1003700080818D7F808388E48093B80085E48093BA
:10038000BC000895CF93DF9391E090933C018823C4
:10039000B9F0C091B800D091BA008091BC008A7BBE
:1003A0008093BC0060E082E10E94A60060E083E1EF
:1003B0000E94A6000E94A401D093BA00C093B80086
:1003C000DF91CF9108958F929F92AF92BF92CF927B
:1003D000DF92EF92FF920F931F93CF93DF93D09111
:1003E0000402D13208F0D7C0182FC09103020E9436
:1003F000F2006B017C018091DB0181116BC082E016
:100400008093DB011093DA018FEF8093D901109272
:10041000D801D093D701A3EEB1E0E7EBF1E080E0A3
:10042000D81391C01092B6018091B601CC0FC82BA1
:10043000C093B6018091B501813009F088C0109257
:10044000B5010E94F2006B017C018091B60180939E
:10045000BB008091DD019091DE01A091DF01B091A0
:10046000E001892B8A2B8B2BA1F00E94F2000091D6
:10047000DD011091DE012091DF013091E0016C1966
:100480007D098E099F09061717072807390708F401
:1004900042C08091BC0083FDD8CF85EC8093BC0026
:1004A0000E94F2006B017C018091DB01823009F433
:1004B00050C08091D9018F3F09F46FC08091D9015C
:1004C000803209F46CC08091D901803309F469C08D
:1004D00084E026C08091DD019091DE01A091DF01D2
:1004E000B091E001892B8A2B8B2B09F484CF0E94D9
:1004F000F2008090DD019090DE01A090DF01B090CD
:10050000E0016C197D098E099F0986169706A806D9
:10051000B90608F070CF8091DC010E94C20185E02D
:100520001092E201109204021092E101DF91CF914A
:100530001F910F91FF90EF90DF90CF90BF90AF9001
:100540009F908F9008959D9191938F5F69CF85EED5
:10055000A5CF8091DD019091DE01A091DF01B091E6
:10056000E001892B8A2B8B2B09F49ECF0E94F2008D
:100570000091DD011091DE012091DF013091E00159
:100580006C197D098E099F09061717072807390777
:1005900008F08ACFC0CF81E0C3CF80E0C1CF82E036
:1005A000BFCF83E0BDCF0895E091850180918401A4
:1005B000E81730F4F0E0EA57FE4F808190E00895AC
:1005C0008FEF9FEF089590918501809184012FEF27
:1005D0003FEF981748F4E92FF0E0EA57FE4F2081EB
:1005E00030E09F5F90938501C90108958091840157
:1005F00090918501891B990B0895CF92DF92EF921C
:10060000FF920F931F93CF93DF937C01CB018A015D
:100610002091E101222389F0EB016B01C40ED51E6C
:10062000CC15DD0569F06991D701ED91FC91019040
:10063000F081E02DC7010995F3CF642F0E947D0161
:10064000C801DF91CF911F910F91FF90EF90DF9044
:10065000CF900895CF93DF931F92CDB7DEB7698314
:100660002091E1012223F9F020910402203258F078
:1006700021E030E0FC013383228390E080E00F90A2
:10068000DF91CF9108958091E201E82FF0E0ED51E4
:10069000FE4F998190838F5F8093E20180930402E3
:1006A00081E090E0ECCF61E0CE0101960E947D01F7
:1006B000F7CF90E080E00895FC0101900020E9F779
:1006C0003197AF01481B590BBC0181E192E00C94BA
:1006D0004F01CF93DF93EC0160E08E810E94A60072
:1006E00061E08E810E94A60060E08E810E94A600DB
:1006F0008BE891E00197F1F7DF91CF910895CF92C8
:10070000DF92EF92FF920F931F93CF93DF936C01D1
:100710007C0187E0E80EF11CD0E0C0E0062F10E07D
:10072000B8010C2E02C0759567950A94E2F76170C6
:10073000F70181917F010E94A6002196C430D10566
:1007400079F7C601DF91CF911F910F91FF90EF9044
:10075000DF90CF900C946903CF92DF92EF92FF92DB
:100760000F931F93CF93DF93EC01F62E642F8C81B0
:100770000E94A6008D818F3F19F060E00E94A600C4
:100780000F2D10E08F8584FF25C06E0187E0C80E15
:10079000D11CF12CE12CB8010E2C02C07595679587
:1007A0000A94E2F76170F60181916F010E94A60040
:1007B000FFEFEF1AFF0A88E0E816F10461F7CE01B7
:1007C000DF91CF911F910F91FF90EF90DF90CF902D
:1007D0000C946903B80184E0759567958A95E1F7F3
:1007E000CE010E947F036F2DCE01DF91CF911F912B
:1007F0000F91FF90EF90DF90CF900C947F0340E03B
:10080000682F81E192E00C94AC0381E00E94FF0329
:100810008BE39FE10197F1F70895CF93DF93823047
:1008200029F49091200298609093200280932402F2
:100830001092250280E48093260280E180932702B3
:1008400080E580932802809115020E9487008091A4
:1008500016028F3F11F00E948700809117020E94BC
:100860008700C1E1D2E09E012151324080912002F7
:1008700084FD0AC084E090E02196281739073CF4F3
:100880008E810E948700EFCF88E090E0F5CF8BE368
:100890009DE00197F1F760E0809115020E94A600AB
:1008A00060E0809117020E94A600809116028F3F9F
:1008B00019F060E00E94A6008091200284FD34C0FF
:1008C00063E081E192E00E947F03CBE4D6E4CE01B5
:1008D0000197F1F763E081E192E00E947F032197A5
:1008E000F1F763E081E192E00E947F0383E592E00B
:1008F0000197F1F762E081E192E00E947F0380912D
:10090000200280620E94FF0384E0809321028CE039
:100910000E94FF030E94050482E08093220286E089
:10092000DF91CF910C94FF0380620E94FF038BE460
:1009300096E40197F1F78091200280620E94FF0304
:1009400083E592E00197F1F78091200280620E9496
:10095000FF03D5CF41E00E94AC0381E090E0089511
:10096000CF92DF92EF92FF920F931F93CF93DF937B
:10097000CDB7DEB7A1970FB6F894DEBF0FBECDBFDF
:10098000182F8A3020F489E391E00E945C03212F24
:1009900030E050E040E019A28E010F5D1F4F8AE069
:1009A000C82ED12CE12CF12CCA01B901A701960166
:1009B0000E94F508605DF80162938F0121153105F1
:1009C0004105510589F7309761F001900020E9F762
:1009D0003197AF01401B510BB80181E192E00E94B9
:1009E0004F01A1960FB6F894DEBF0FBECDBFDF91C9
:1009F000CF911F910F91FF90EF90DF90CF900895CE
:100A000085ED8093BC008091DD019091DE01A09185
:100A1000DF01B091E0010796A11DB11D23E0B6955D
:100A2000A795979587952A95D1F72091BC0024FD2D
:100A300003C01092DB0108954091DD015091DE0169
:100A40006091DF017091E001452B462B472B69F344
:100A50000097A105B10541F02AE22A95F1F700C0FF
:100A60000197A109B109E1CF8091DC010C94C20189
:100A70001F920F920FB60F9211242F933F938F93D3
:100A80009F93AF93BF938091AD019091AE01A091E0
:100A9000AF01B091B0013091AC0123E0230F2D37AD
:100AA00058F50196A11DB11D2093AC018093AD01B5
:100AB0009093AE01A093AF01B093B0018091B101CA
:100AC0009091B201A091B301B091B4010196A11D22
:100AD000B11D8093B1019093B201A093B301B09383
:100AE000B401BF91AF919F918F913F912F910F9042
:100AF0000FBE0F901F90189526E8230F0296A11D98
:100B0000B11DD2CF1F920F920FB60F9211242F93C7
:100B10003F934F935F936F937F938F939F93AF9385
:100B2000BF93EF93FF938091B900887F803609F4DB
:100B30004AC0F0F5883209F4A7C018F5803109F4ED
:100B40009BC0B8F4882309F4F9C0883009F494C034
:100B5000FF91EF91BF91AF919F918F917F916F9195
:100B60005F914F913F912F910F900FBE0F901F906B
:100B70001895883109F488C0803251F78093D901E3
:100B800014C0803409F49DC040F48033B9F3883335
:100B9000F9F68093D90185ECB0C0803509F485C0A1
:100BA000883509F496C0883499F60E940005D0CFA4
:100BB000883909F48CC038F5883729F050F4883624
:100BC00011F0803729F683E08093DB0110927F01DA
:100BD00057C0883809F47BC0803919F0803809F093
:100BE000B7CF80917F01803208F071C0E0917F0122
:100BF00081E08E0F80937F018091BB00F0E0E15A8D
:100C0000FE4F80833DC0803B39F0E0F4803A09F428
:100C100079C0883A09F09CCF84E08093DB01109280
:100C20005E0110925D01E0918201F09183010995CE
:100C300080915D0181110FC081E080935D01109270
:100C40003D0109C0803C09F4A6CF883C09F4A3CF3C
:100C5000883B09F07DCFE0915E0181E08E0F8093AB
:100C60005E01F0E0E35CFE4F80818093BB009091D9
:100C70005E0180915D0129C08091B6018093BB0027
:100C800085EC8093BC0064CF9091D8018091D7010E
:100C9000981758F5E091D80181E08E0F8093D80124
:100CA000F0E0E954FE4F8081E9CFE091D80181E086
:100CB0008E0F8093D8018091BB00F0E0E954FE4F85
:100CC00080839091D8018091D7019817C8F285E868
:100CD000D8CFE091D80181E08E0F8093D801809128
:100CE000BB00F0E0E954FE4F80838091DA0181116E
:100CF0005CCF81E08093B50184EA8093BC001092C0
:100D0000DB0126CF85EC8093BC001092DB01809143
:100D10007F01803230F4E0917F01F0E0E15AFE4F34
:100D2000108260917F0170E0E0918001F09181017B
:100D30008FE591E0099510927F010ACF1092D901B9
:100D400034CFE5E0F2E01382128288EE93E0A0E077
:100D5000B0E084839583A683B78384E091E0918398
:100D60008083E1E1F2E01382128286E191E09183D7
:100D700080838AE084838FEF85838BE086838CE099
:100D800087838DE080878EE081878FE0828713865E
:100D9000148615861686178681E00C940D047894C7
:100DA00084B5826084BD84B5816084BD85B5826070
:100DB00085BD85B5816085BD80916E008160809321
:100DC0006E0010928100809181008260809381008A
:100DD000809181008160809381008091800081609A
:100DE000809380008091B10084608093B1008091F5
:100DF000B00081608093B00080917A00846080931D
:100E00007A0080917A00826080937A0080917A00E3
:100E1000816080937A0080917A00806880937A0064
:100E20001092C10010928501109284011092E2018B
:100E3000109204020E94A4018DE491E0909383013A
:100E4000809382018EE491E09093810180938001F0
:100E500082E00E940D040E940504E1E080912402DA
:100E60008111E0E0E195F0E0EF5EFD4F848980685C
:100E70000E94FF038EE191E00E945C030E94170133
:100E800081E08093E10188E6809303021092E20101
:100E90001092040260E085E092E00E942A0360E084
:100EA00085E092E00E942A0360E385E092E00E94E0
:100EB0002A0364E185E092E00E942A0361E085E074
:100EC00092E00E942A0369E285E092E00E942A03F0
:100ED00064E085E092E00E942A0366E285E092E009
:100EE0000E942A0381E00E94E30101E088E6F82ED7
:100EF00095EEE92E25ECD22E1AE0C0E0D0E0CC240D
:100F0000CA9436E0B32E0093E101F09203021092EE
:100F1000E2011092040260E085E092E00E942A0360
:100F200081E00E94E3010E94F2002B013C018091CC
:100F3000DB01811161C00093DB010093DA01C092F3
:100F4000D9011092D801B092D7010093B6018091D7
:100F5000B601806D8093B6018091B501813009F0B2
:100F60001BC11092B5010E94F2002B013C0180913F
:100F7000B6018093BB008091DD019091DE01A091CC
:100F8000DF01B091E001892B8A2B8B2BA1F00E940D
:100F9000F2002091DD013091DE014091DF0150919E
:100FA000E00164197509860997092617370748076C
:100FB000590708F442C08091BC0083FDD8CFD0927D
:100FC000BC000E94F2002B013C018091DB018130CA
:100FD00009F4E5C08091D801873008F002C1809102
:100FE000D801E7EBF1E0A6E8B1E090E0981751F105
:100FF00021912D939F5FFACF8091DD019091DE01C9
:10100000A091DF01B091E001892B8A2B8B2B09F491
:101010008ECF0E94F2002091DD013091DE014091DF
:10102000DF015091E00164197509860997092617B7
:1010300037074807590708F07ACF8091DC010E94F2
:10104000C20180E0109285018093840185E092E0E6
:101050000E94E302982F929597708F70919F800D58
:1010600011248093A90185E092E00E94E302982F69
:1010700092959F708F70919F800D11248093AA018B
:1010800085E092E00E94E302982F929593708F7012
:10109000919F800D11248093AB0185E092E00E9426
:1010A000E30285E092E00E94E302982F92959F7000
:1010B0008F70919F800D11248093A80185E092E0AC
:1010C0000E94E302982F92959F708F70919F800DE0
:1010D00011248093A70185E092E00E94E302982FFB
:1010E00092959F708F70919F800D11248093A6011F
:1010F0000E940504E1E0809124028111E0E0E19585
:10110000F0E0EF5EFD4F848980680E94FF0387E274
:1011100091E00E945C038091AB010E94B0048DE2DB
:1011200091E00E945C038091AA010E94B0048DE2CC
:1011300091E00E945C038091A9010E94B004E091BB
:101140002402E23008F04FC0E150F0E0EF5EFD4FC6
:10115000848980680E94FF038FE291E00E945C0313
:101160008091A8010E94B00485E391E00E945C0395
:101170008091A7010E94B00487E391E00E945C0384
:101180008091A6010E94B0040E941701209709F4E3
:10119000BACE0E940000B7CEE092BC0012CF809180
:1011A000DD019091DE01A091DF01B091E001892B7A
:1011B0008A2B8B2B09F409CF0E94F2002091DD01CC
:1011C0003091DE014091DF015091E0016419750911
:1011D00086099709261737074807590708F0F5CEFB
:1011E0002CCF87E0FECEE1E0B0CFA1E21A2EAA1B01
:1011F000BB1BFD010DC0AA1FBB1FEE1FFF1FA217C7
:10120000B307E407F50720F0A21BB30BE40BF50BC3
:10121000661F771F881F991F1A9469F7609570954C
:10122000809590959B01AC01BD01CF010895EE0F13
:0E123000FF1F0590F491E02D0994F894FFCF74
:10123E00000000002A03FD025903D302F602E30266
:10124E00D40200000000AA044F0159037C0152543D
:10125E004320546573740054696D6520003A004450
:0C126E0061746520002F002F323000005A
:00000001FF
