:100000000C945D000C9485000C9485000C94850084
:100010000C9485000C9485000C9485000C9485004C
:100020000C9485000C9485000C9485000C9485003C
:100030000C9485000C9485000C9485000C9485002C
:100040000C94AA020C9485000C9485000C948500F5
:100050000C9485000C9485000C9485000C9485000C
:100060000C9485000C94850000000008000201003B
:100070000003040700000000000000000000000072
:10008000250028002B0000000000240027002A0083
:10009000040404040404040402020202020203032E
:1000A0000303030301020408102040800102040836
:1000B0001020010204081020960311241FBECFEF68
:1000C000D8E0DEBFCDBF11E0A0E0B1E0E4EAF7E0A8
:1000D00002C005900D92A634B107D9F721E0A6E43D
:1000E000B1E001C01D92A736B207E1F710E0CDE5FF
:1000F000D0E004C02197FE010E94CA03CC35D1078D
:10010000C9F70E94F4020C94D0030C94000090E014
:10011000FC01EC55FF4F249180579F4FFC018491C7
:10012000882399F090E0880F991FFC01EA57FF4F50
:10013000A591B491FC01E458FF4F859194918FB73C
:10014000F894EC91E22BEC938FBF089590E0FC01C2
:10015000E859FF4F2491FC01EC55FF4F3491FC010D
:10016000E057FF4FE491EE23C9F0222339F023300A
:1001700001F1A8F4213019F1223029F1F0E0EE0F5D
:10018000FF1FE458FF4FA591B4918FB7F894EC91FD
:10019000611126C030953E233C938FBF08952730D0
:1001A000A9F02830C9F0243049F7809180008F7D74
:1001B00003C0809180008F7780938000DFCF84B56B
:1001C0008F7784BDDBCF84B58F7DFBCF8091B0006E
:1001D0008F778093B000D2CF8091B0008F7DF9CF20
:1001E0003E2BDACF3FB7F89480914B0190914C01B0
:1001F000A0914D01B0914E0126B5A89B05C02F3F9F
:1002000019F00196A11DB11D3FBFBA2FA92F982F3C
:100210008827BC01CD01620F711D811D911D42E037
:10022000660F771F881F991F4A95D1F70895AF92DF
:10023000BF92CF92DF92EF92FF920F931F93CF93D3
:10024000DF936C017B018B01040F151FEB015E0135
:10025000AE18BF08C017D10759F06991D601ED91CA
:10026000FC910190F081E02DC6010995892B79F769
:10027000C501DF91CF911F910F91FF90EF90DF901B
:10028000CF90BF90AF900895089590E080E00895DA
:10029000FC0101900020E9F73197AF01481B590B91
:1002A000BC018FE491E00C941701CF93DF93EC0134
:1002B00060E08E810E94A60061E08E810E94A6000F
:1002C00060E08E810E94A6008BE891E00197F1F733
:1002D000DF91CF910895CF92DF92EF92FF920F932B
:1002E0001F93CF93DF936C017C0187E0E80EF11C34
:1002F000D0E0C0E0062F10E0B8010C2E02C07595CA
:1003000067950A94E2F76170F70181917F010E947D
:10031000A6002196C430D10579F7C601DF91CF91AF
:100320001F910F91FF90EF90DF90CF900C945501AB
:10033000CF92DF92EF92FF920F931F93CF93DF93B1
:10034000EC01F62E642F8C810E94A6008D818F3FD8
:1003500019F060E00E94A6000F2D10E08F8584FF49
:1003600025C06E0187E0C80ED11CF12CE12CB8012C
:100370000E2C02C0759567950A94E2F76170F6013C
:1003800081916F010E94A600FFEFEF1AFF0A88E03B
:10039000E816F10461F7CE01DF91CF911F910F9123
:1003A000FF90EF90DF90CF900C945501B80184E05E
:1003B000759567958A95E1F7CE010E946B016F2DC7
:1003C000CE01DF91CF911F910F91FF90EF90DF90C1
:1003D000CF900C946B0140E0682F8FE491E00C9477
:1003E000980181E00E94EB018BE39FE10197F1F717
:1003F0000895CF93DF93823029F490915E01986045
:1004000090935E01809362011092630180E4809377
:10041000640180E18093650180E5809366018091AD
:1004200053010E948700809154018F3F11F00E9478
:100430008700809155010E948700CFE4D1E09E01A2
:100440002F54314080915E0184FD0AC084E090E029
:100450002196281739073CF48E810E948700EFCF40
:1004600088E090E0F5CF8BE39DE00197F1F760E045
:10047000809153010E94A60060E0809155010E9486
:10048000A600809154018F3F19F060E00E94A60001
:1004900080915E0184FD34C063E08FE491E00E94AE
:1004A0006B01CBE4D6E4CE010197F1F763E08FE472
:1004B00091E00E946B012197F1F763E08FE491E0F6
:1004C0000E946B0183E592E00197F1F762E08FE40F
:1004D00091E00E946B0180915E0180620E94EB01BD
:1004E00084E080935F018CE00E94EB010E94F101A7
:1004F00082E08093600186E0DF91CF910C94EB0164
:1005000080620E94EB018BE496E40197F1F7809101
:100510005E0180620E94EB0183E592E00197F1F7B2
:1005200080915E0180620E94EB01D5CF90916201C3
:10053000891710F08FEF890FE82FF0E0E15BFE4F95
:10054000848980680C94EB0141E00E94980181E06D
:1005500090E008951F920F920FB60F9211242F93DF
:100560003F938F939F93AF93BF9380914701909157
:100570004801A0914901B0914A013091460123E020
:10058000230F2D3758F50196A11DB11D209346016B
:100590008093470190934801A0934901B0934A0189
:1005A00080914B0190914C01A0914D01B0914E0171
:1005B0000196A11DB11D80934B0190934C01A09316
:1005C0004D01B0934E01BF91AF919F918F913F919B
:1005D0002F910F900FBE0F901F90189526E8230FB4
:1005E0000296A11DB11DD2CF789484B5826084BDDE
:1005F00084B5816084BD85B5826085BD85B5816027
:1006000085BD80916E00816080936E0010928100A4
:10061000809181008260809381008091810081605F
:100620008093810080918000816080938000809120
:10063000B10084608093B1008091B00081608093AC
:10064000B00080917A00846080937A0080917A0073
:10065000826080937A0080917A00816080937A0032
:1006600080917A00806880937A001092C10082E0C5
:100670000E94F9010E94F10180E00E9496028CE044
:1006800091E00E94480181E00E94960289E191E098
:100690000E9448010E94F2004B015C0188EEC82EC6
:1006A00083E0D82EE12CF12C0E94F2006819790920
:1006B0008A099B09683E734081059105A8F321E0F2
:1006C000C21AD108E108F10888EE880E83E0981E6E
:1006D000A11CB11CC114D104E104F10429F7D0E03C
:1006E000C0E0CE010E94B403882321F060E0CE0177
:1006F0000E94BC032196C11584E0D80791F70E949F
:10070000F10180E00E94960285E291E00E9448019A
:1007100081E00E94960284E391E00E944801C0E0DB
:10072000D0E02097F1F30E940000FBCFEFE4F1E06E
:100730001382128284E091E0918380838BE0848332
:100740008FEF85838CE086838DE087838EE08087C2
:100750008FE0818780E1828713861486158616864E
:10076000178681E00C94F901F999FECF92BD81BD05
:10077000F89A992780B50895262FF999FECF1FBAC8
:1007800092BD81BD20BD0FB6F894FA9AF99A0FBEBA
:1007900001960895EE0FFF1F0590F491E02D099446
:0407A000F894FFCFFB
:1007A40000000000A40217014501440145455052D0
:1007B4004F4D20524553455400506C65617365207C
:1007C4007761697400454550524F4D20434C454173
:1007D4005245440055706C6F6164206D61696E20F0
:0607E400636F6465000074
:00000001FF
