:100000000C9462000C948A000C948A000C948A0070
:100010000C948A000C948A000C948A000C948A0038
:100020000C948A000C948A000C948A000C948A0028
:100030000C948A000C948A000C948A000C948A0018
:100040000C941C030C948A000C948A000C948A0073
:100050000C948A000C948A000C948A000C948A00F8
:100060000C948A000C948A000000000024002700F1
:100070002A0000000000250028002B0000000000DE
:1000800023002600290004040404040404040202DA
:100090000202020203030303030301020408102007
:1000A0004080010204081020010204081020000012
:1000B0000008000201000003040700000000000027
:1000C0000000810411241FBECFEFD8E0DEBFCDBFFA
:1000D00011E0A0E0B1E0EEE4F9E002C005900D927D
:1000E000AC31B107D9F721E0ACE1B1E001C01D921C
:1000F000AE33B207E1F710E0C2E6D0E004C02197CA
:10010000FE010E949F04C136D107C9F70E94660311
:100110000C94A5040C940000833081F028F4813005
:1001200099F08230A9F008958730A9F08830C9F09D
:100130008430B1F4809180008F7D03C08091800075
:100140008F7780938000089584B58F7784BD08955C
:1001500084B58F7DFBCF8091B0008F778093B00006
:1001600008958091B0008F7DF9CFCF93DF93282F32
:1001700030E0F901E255FF4F8491F901E656FF4F57
:10018000D491F901EA57FF4FC491CC23A1F081111A
:100190000E948C00EC2FF0E0EE0FFF1FE458FF4FA1
:1001A000A591B491EC91ED2381E090E009F480E019
:1001B000DF91CF91089580E090E0FACF1F93CF9325
:1001C000DF93282F30E0F901E255FF4F8491F901C8
:1001D000E656FF4FD491F901EA57FF4FC491CC2363
:1001E000A9F0162F81110E948C00EC2FF0E0EE0F89
:1001F000FF1FEE58FF4FA591B4918FB7F894EC9183
:10020000111108C0D095DE23DC938FBFDF91CF9111
:100210001F910895DE2BF8CFCF93DF9390E0FC0180
:10022000E656FF4F24918A579F4FFC018491882303
:10023000D1F090E0880F991FFC01E859FF4FA5917C
:10024000B491FC01EE58FF4FC591D49161110EC0DD
:100250009FB7F8948C91E22FE0958E238C932881A0
:10026000E223E8839FBFDF91CF9108958FB7F89481
:10027000EC91E22BEC938FBFF6CF3FB7F8948091CF
:10028000220190912301A0912401B091250126B56E
:10029000A89B05C02F3F19F00196A11DB11D3FBFBE
:1002A000BA2FA92F982F8827BC01CD01620F711D8D
:1002B000811D911D42E0660F771F881F991F4A9587
:1002C000D1F708958F929F92AF92BF92CF92DF9213
:1002D000EF92FF924B015C010E943D016B017C019A
:1002E0000E943D016C197D098E099F09683E73408B
:1002F00081059105A8F321E0821A9108A108B108AF
:1003000088EEC80E83E0D81EE11CF11C8114910414
:10031000A104B10429F7FF90EF90DF90CF90BF9038
:10032000AF909F908F900895AF92BF92CF92DF923F
:10033000EF92FF920F931F93CF93DF936C017B019A
:100340008B01040F151FEB015E01AE18BF08C0172B
:10035000D10759F06991D601ED91FC910190F0819E
:10036000E02DC6010995892B79F7C501DF91CF9161
:100370001F910F91FF90EF90DF90CF90BF90AF90C3
:100380000895089590E080E0089560E082E00E9482
:10039000DE0060E083E00E94DE0060E084E00C9418
:1003A000DE00CF93DF93EC0160E08E810E94DE00DF
:1003B00061E08E810E94DE0060E08E810E94DE009E
:1003C0008BE891E00197F1F7DF91CF910895CF92FB
:1003D000DF92EF92FF920F931F93CF93DF936C0105
:1003E0007C0187E0E80EF11CD0E0C0E0062F10E0B1
:1003F000B8010C2E02C0759567950A94E2F76170FA
:10040000F70181917F010E94DE002196C430D10561
:1004100079F7C601DF91CF911F910F91FF90EF9077
:10042000DF90CF900C94D101CF92DF92EF92FF92A8
:100430000F931F93CF93DF93EC01F62E642F8C81E3
:100440000E94DE008D818F3F19F060E00E94DE0087
:100450000F2D10E08F8584FF25C06E0187E0C80E48
:10046000D11CF12CE12CB8010E2C02C075956795BA
:100470000A94E2F76170F60181916F010E94DE003B
:10048000FFEFEF1AFF0A88E0E816F10461F7CE01EA
:10049000DF91CF911F910F91FF90EF90DF90CF9060
:1004A0000C94D101B80184E0759567958A95E1F7C0
:1004B000CE010E94E7016F2DCE01DF91CF911F91F8
:1004C0000F91FF90EF90DF90CF900C94E70140E008
:1004D000682F86E291E00C94140281E00E9467028A
:1004E0008BE39FE10197F1F70895CF93DF9382307B
:1004F00029F49091350198609093350180933901EA
:1005000010923A0180E480933B0180E180933C01AA
:1005100080E580933D0161E080912A010E940C01F9
:1005200080912B018F3F19F061E00E940C0161E086
:1005300080912C010E940C01C6E2D1E09E0126525E
:1005400031408091350184FD0BC084E090E021961C
:100550002817390744F461E08E810E940C01EECF28
:1005600088E090E0F4CF8BE39DE00197F1F760E045
:1005700080912A010E94DE0060E080912C010E949F
:10058000DE0080912B018F3F19F060E00E94DE00B9
:100590008091350184FD34C063E086E291E00E94E1
:1005A000E701CBE4D6E4CE010197F1F763E086E200
:1005B00091E00E94E7012197F1F763E086E291E084
:1005C0000E94E70183E592E00197F1F762E086E29D
:1005D00091E00E94E7018091350180620E946702EC
:1005E00084E0809336018CE00E9467020E946D02D5
:1005F00082E08093370186E0DF91CF910C9467020F
:1006000080620E9467028BE496E40197F1F7809183
:10061000350180620E94670283E592E00197F1F75D
:100620008091350180620E946702D5CF41E00E942F
:10063000140281E090E008951F920F920FB60F927E
:1006400011242F933F938F939F93AF93BF938091E8
:100650001E0190911F01A0912001B09121013091C4
:100660001D0123E0230F2D3758F50196A11DB11D63
:1006700020931D0180931E0190931F01A0932001E0
:10068000B09321018091220190912301A091240136
:10069000B09125010196A11DB11D80932201909377
:1006A0002301A0932401B0932501BF91AF919F91A5
:1006B0008F913F912F910F900FBE0F901F90189523
:1006C00026E8230F0296A11DB11DD2CF789484B5E0
:1006D000826084BD84B5816084BD85B5826085BD3E
:1006E00085B5816085BD80916E00816080936E00CC
:1006F00010928100809181008260809381008091BE
:10070000810081608093810080918000816080936E
:1007100080008091B10084608093B1008091B0002E
:1007200081608093B00080917A00846080937A0029
:1007300080917A00826080937A0080917A00816053
:1007400080937A0080917A00806880937A0010927A
:10075000C10061E082E00E940C0161E083E00E9440
:100760000C0161E084E00E940C0160E086E00E94E0
:100770000C0160E087E00E940C0160E08AE00E94CA
:100780000C010E94C50182E00E9475020E946D0268
:10079000E1E0809139018111E0E0E195F0E0EA5D6E
:1007A000FE4F848980680E94670249E050E062E160
:1007B00071E086E291E00E94940100E010E08CE09C
:1007C000E82E81E0F82ED0E0C0E00E94C50165E08F
:1007D00070E080E090E00E946201F7018081F2E029
:1007E000EF0EF11C61E00E94DE0064E170E080E049
:1007F00090E00E9462018AE00E94B500019709F032
:1008000055C086E00E94B50031E020E0019709F074
:1008100030E0E32EF22E87E00E94B500019719F434
:1008200082E0E80EF11C0E94C501E114F10421F5FB
:10083000209709F456C0219709F055C0C2E3809172
:100840001C0181113AC00E946D02E1E080913901E2
:100850008111E0E0E195F0E0EA5DFE4F8489806877
:100860000E94670241E06C2F86E291E00E94140230
:1008700081E080931C0121C091E0E916F10431F47C
:10088000209799F1219799F5C5E3D9CFE2E0EE16CB
:10089000F10431F4209769F1219769F5C8E3CFCFCE
:1008A000209759F1219759F5C0E3C9CF2196C3305C
:1008B000D10509F08ACF0E94C5018AE00E94B500E7
:1008C000892B11F410921C0162E370E080E090E04B
:1008D0000E9462010115110509F471CF0E94000008
:1008E0006ECFC1E3ACCFC3E3AACFC4E3A8CFC6E3C6
:1008F000A6CFC7E3A4CFC9E3A2CFCAE2A0CFC3E289
:100900009ECFE6E2F1E01382128284E091E09183CF
:1009100080838BE084838FEF85838CE086838DE0FA
:1009200087838EE080878FE0818780E182871386CE
:10093000148615861686178681E00C947502EE0FD4
:0E094000FF1F0590F491E02D0994F894FFCF6D
:10094E000000000016039401C201C1010200030061
:0C095E0004005072657373204B65790033
:00000001FF
