:020000040000FA
:100000000C9462000C948A000C948A000C948A0070
:100010000C948A000C948A000C948A000C948A0038
:100020000C948A000C948A000C948A000C948A0028
:100030000C948A000C948A000C948A000C948A0018
:100040000C94ED070C948A000C948A000C948A009E
:100050000C948A000C948A000C948A000C948A00F8
:100060000C9437080C948A0000000000240027003C
:100070002A0000000000250028002B0000000000DE
:1000800023002600290004040404040404040202DA
:100090000202020203030303030301020408102007
:1000A0004080010204081020010204081020000012
:1000B0000008000201000003040700000000000027
:1000C0000000560911241FBECFEFD8E0DEBFCDBF20
:1000D00012E0A0E0B1E0E2E5FCE102C005900D9283
:1000E000A831B107D9F723E0A8E1B2E001C01D9221
:1000F000A331B207E1F710E0C2E6D0E004C02197D7
:10010000FE010E94210EC136D107C9F70E94840961
:100110000C94270E0C940000833081F028F4813079
:1001200099F08230A9F008958730A9F08830C9F09D
:100130008430B1F4809180008F7D03C08091800075
:100140008F7780938000089584B58F7784BD08955C
:1001500084B58F7DFBCF8091B0008F778093B00006
:1001600008958091B0008F7DF9CFCF93DF93282F32
:1001700030E0F901E255FF4F8491F901E656FF4F57
:10018000D491F901EA57FF4FC491CC23A1F081111A
:100190000E948C00EC2FF0E0EE0FFF1FE458FF4FA1
:1001A000A591B491EC91ED2381E090E009F480E019
:1001B000DF91CF91089580E090E0FACF1F93CF9325
:1001C000DF93282F30E0F901E255FF4F8491F901C8
:1001D000E656FF4FD491F901EA57FF4FC491CC2363
:1001E000A9F0162F81110E948C00EC2FF0E0EE0F89
:1001F000FF1FEE58FF4FA591B4918FB7F894EC9183
:10020000111108C0D095DE23DC938FBFDF91CF9111
:100210001F910895DE2BF8CFCF93DF9390E0FC0180
:10022000E656FF4F24918A579F4FFC018491882303
:10023000D1F090E0880F991FFC01E859FF4FA5917C
:10024000B491FC01EE58FF4FC591D49161110EC0DD
:100250009FB7F8948C91E22FE0958E238C932881A0
:10026000E223E8839FBFDF91CF9108958FB7F89481
:10027000EC91E22BEC938FBFF6CF3FB7F8948091CF
:100280009B0290919C02A0919D02B0919E0226B586
:10029000A89B05C02F3F19F00196A11DB11D3FBFBE
:1002A000BA2FA92F982F8827BC01CD01620F711D8D
:1002B000811D911D42E0660F771F881F991F4A9587
:1002C000D1F708958F929F92AF92BF92CF92DF9213
:1002D000EF92FF924B015C010E943D016B017C019A
:1002E0000E943D016C197D098E099F09683E73408B
:1002F00081059105A8F321E0821A9108A108B108AF
:1003000088EEC80E83E0D81EE11CF11C8114910414
:10031000A104B10429F7FF90EF90DF90CF90BF9038
:10032000AF909F908F90089508950895AF92BF92D7
:10033000CF92DF92EF92FF920F931F93CF93DF93B1
:100340006C017B018B01040F151FEB015E01AE18E0
:10035000BF08C017D10759F06991D601ED91FC9102
:100360000190F081E02DC6010995892B79F7C5012F
:10037000DF91CF911F910F91FF90EF90DF90CF9081
:10038000BF90AF900895089520915902260F33270A
:10039000331F21323105ECF42091C502FC0190E0BD
:1003A00080E0243069F082E00895A0915902219103
:1003B000AC01475C5D4FA40FB52FB11D2C93019686
:1003C000861798F380915902680F6093590280E074
:1003D000089581E008951092C50281E08093C402DF
:1003E00010929F0261E082E10E94DE0061E083E101
:1003F0000E94DE00E9EBF0E080818E7F80838081C7
:100400008D7F808388E48093B80085E48093BC006E
:100410000895CF93DF9391E0909338028823B9F049
:10042000C091B800D091BA008091BC008A7B8093C3
:10043000BC0060E082E10E94DE0060E083E10E9497
:10044000DE000E94EB01D093BA00C093B800DF91A8
:10045000CF910895CF92DF92EF92FF920F931F9367
:10046000CF93DF93D091EE0281E0D13208F09CC0AF
:10047000C091ED020E943D016B017C018091C5029B
:1004800081116CC082E08093C50281E08093C40238
:100490008FEF8093C3021092C202D093C102ADECE1
:1004A000B2E0E1EAF2E080E0D8138DC01092A00241
:1004B0008091A002CC0FC82BC093A00280919F0214
:1004C000813009F084C010929F020E943D016B01AF
:1004D0007C018091A0028093BB008091C702909123
:1004E000C802A091C902B091CA02892B8A2B8B2B1A
:1004F000A1F00E943D010091C7021091C802209115
:10050000C9023091CA026C197D098E099F0906172C
:1005100017072807390708F442C08091BC0083FD03
:10052000D8CF85EC8093BC000E943D016B017C011B
:100530008091C502823009F44CC08091C3028F3F84
:1005400009F469C08091C302803209F466C08091C9
:10055000C302803309F463C084E026C08091C702DF
:100560009091C802A091C902B091CA02892B8A2B2E
:100570008B2B09F483CF0E943D010091C70210919B
:10058000C8022091C9023091CA026C197D098E09F6
:100590009F09061717072807390708F06FCF8091C2
:1005A000C6020E94090285E01092CC021092EE026F
:1005B0001092CB02DF91CF911F910F91FF90EF909E
:1005C000DF90CF9008959D9191938F5F6DCF85EED1
:1005D000A9CF8091C7029091C802A091C902B091A1
:1005E000CA02892B8A2B8B2B09F4A2CF0E943D01D2
:1005F0000091C7021091C8022091C9023091CA022D
:100600006C197D098E099F090617170728073907F6
:1006100008F08ECFC4CF80E0C7CF82E0C5CF83E0A3
:10062000C3CF0895E091810280918002E81730F4F1
:10063000F0E0E85EFD4F808190E008958FEF9FEF3E
:10064000089590918102809180022FEF3FEF9817DB
:1006500048F4E92FF0E0E85EFD4F208130E09F5F35
:1006600090938102C9010895809180029091810246
:10067000891B990B0895CF92DF92EF92FF920F930F
:100680001F93CF93DF937C01CB018A012091CB0292
:10069000222389F0EB016B01C40ED51ECC15DD05BC
:1006A00069F06991D701ED91FC910190F081E02D05
:1006B000C7010995F3CF642F0E94C401C801DF91DF
:1006C000CF911F910F91FF90EF90DF90CF90089501
:1006D000CF93DF931F92CDB7DEB769832091CB0212
:1006E0002223F9F02091EE02203258F021E030E090
:1006F000FC013383228390E080E00F90DF91CF9163
:1007000008958091CC02E82FF0E0E353FD4F9981EA
:1007100090838F5F8093CC028093EE0281E090E023
:10072000ECCF61E0CE0101960E94C401F7CF90E0CA
:1007300080E0089560E082E00E94DE0060E083E0F7
:100740000E94DE0060E084E00C94DE00EAE8F2E063
:1007500010821182128213821482109290021092DF
:100760008F020895CF93DF9386E00E94B50031E0B9
:1007700020E0019709F030E0C32FD22F87E00E94DC
:10078000B500019709F4229688E00E94B500019710
:1007900009F4249689E00E94B500019709F428968F
:1007A000CE01DF91CF9108958F929F92AF92BF9229
:1007B0000F931F93CF93DF93CDB7DEB7A1970FB6FB
:1007C000F894DEBF0FBECDBF19A2423008F44AE054
:1007D0008E010F5D1F4F842E912CB12CA12CA501F1
:1007E00094010E94FF0DE62FB901CA01EA3044F5D9
:1007F000E05DD801EE938D01232B242B252B79F777
:1008000090E080E0109769F0FD0101900020E9F789
:100810003197AF014A1B5B0BBD018BEF92E00E9449
:100820009601A1960FB6F894DEBF0FBECDBFDF9143
:10083000CF911F910F91BF90AF909F908F9008958F
:10084000E95CD7CFFC0101900020E9F73197AF01B7
:10085000481B590BBC018BEF92E00C949601CF938F
:10086000DF93EC0160E08E810E94DE0061E08E810A
:100870000E94DE0060E08E810E94DE008BE891E045
:100880000197F1F7DF91CF910895CF92DF92EF9228
:10089000FF920F931F93CF93DF936C017C0187E04E
:1008A000E80EF11CD0E0C0E0062F10E0B8010C2EDD
:1008B00002C0759567950A94E2F76170F70181911E
:1008C0007F010E94DE002196C430D10579F7C60170
:1008D000DF91CF911F910F91FF90EF90DF90CF901C
:1008E0000C942F04CF92DF92EF92FF920F931F93FD
:1008F000CF93DF93EC01F62E642F8C810E94DE00F3
:100900008D818F3F19F060E00E94DE000F2D10E016
:100910008F8584FF25C06E0187E0C80ED11CF12CA5
:10092000E12CB8010E2C02C0759567950A94E2F788
:100930006170F60181916F010E94DE00FFEFEF1AF6
:10094000FF0A88E0E816F10461F7CE01DF91CF914C
:100950001F910F91FF90EF90DF90CF900C942F0498
:10096000B80184E0759567958A95E1F7CE010E94FC
:1009700045046F2DCE01DF91CF911F910F91FF9014
:10098000EF90DF90CF900C94450440E0682F8BEF00
:1009900092E00C94720481E00E94C5048BE39FE115
:1009A0000197F1F70895CF93DF93823029F4909166
:1009B0000A03986090930A0380930E0310920F032A
:1009C00080E48093100380E18093110380E580939D
:1009D000120361E08091FF020E940C0180910003EC
:1009E0008F3F19F061E00E940C0161E080910103EA
:1009F0000E940C01CBEFD2E09E012B5F3240809130
:100A00000A0384FD0BC084E090E021962817390783
:100A100044F461E08E810E940C01EECF88E090E00A
:100A2000F4CF8BE39DE00197F1F760E08091FF0246
:100A30000E94DE0060E0809101030E94DE00809150
:100A400000038F3F19F060E00E94DE0080910A03EE
:100A500084FD34C063E08BEF92E00E944504CBE458
:100A6000D6E4CE010197F1F763E08BEF92E00E94AC
:100A700045042197F1F763E08BEF92E00E94450473
:100A800083E592E00197F1F762E08BEF92E00E943C
:100A9000450480910A0380620E94C50484E080932B
:100AA0000B038CE00E94C5040E94CB0482E080937B
:100AB0000C0386E0DF91CF910C94C50480620E9404
:100AC000C5048BE496E40197F1F780910A038062F4
:100AD0000E94C50483E592E00197F1F780910A0333
:100AE00080620E94C504D5CF90910E03891710F043
:100AF0008FEF890FE82FF0E0E550FD4F8489806883
:100B00000C94C5040E94CB0480E00E94740584E22A
:100B100091E00E94220464EC79E080E090E00C9483
:100B200062010E94CB0480E00E94740582E391E0A0
:100B30000E94220481E00E9474058FE391E00C94EE
:100B4000220410929202109291020E94A6030E9427
:100B5000CB0480E00E9474058CE491E00C942204A4
:100B600041E00E94720481E090E0089541E0682F26
:100B70008BEF92E00E94720481E090E00895CF92A2
:100B8000DF92EF92FF92CF93DF936C01990FEE0803
:100B9000FF08F7FE17C08DE20E94B605EC0166273C
:100BA0007727CB016C197D098E099F094AE00E94C5
:100BB000D4038C0F9D1FDF91CF91FF90EF90DF90BA
:100BC000CF9008954AE0C701B601DF91CF91FF9021
:100BD000EF90DF90CF900C94D403CF93C82F8A303E
:100BE00020F488E591E00E9422046C2F70E090E0F0
:100BF00080E04AE0CF910C94D403CF92DF92EF9241
:100C0000FF920F931F93CF9381E08093CB0288E6EE
:100C10008093ED021092CC021092EE0260E08FEE13
:100C200092E00E9468030E942A020E943D016B012B
:100C30007C018091C502811165C081E08093C5026D
:100C40008093C4029FEF9093C3021092C20296E079
:100C50009093C1028093A0028091A002806D809346
:100C6000A00280919F02813009F0D1C010929F02B2
:100C70000E943D016B017C018091A0028093BB002A
:100C80008091C7029091C802A091C902B091CA0296
:100C9000892B8A2B8B2BA1F00E943D010091C7026A
:100CA0001091C8022091C9023091CA026C197D09C5
:100CB0008E099F09061717072807390708F443C04C
:100CC0008091BC0083FDD8CF85EC8093BC000E944E
:100CD0003D016B017C018091C502813009F499C00E
:100CE0008091C202873008F0B6C08091C202A1EAAA
:100CF000B2E0E8E1F2E090E0981751F12D912193F4
:100D00009F5FFACF8091C7029091C802A091C9025B
:100D1000B091CA02892B8A2B8B2B09F48ACF0E94AF
:100D20003D010091C7021091C8022091C902309183
:100D3000CA026C197D098E099F0906171707280733
:100D4000390708F076CF8091C6020E94090280E040
:100D500010928102809380028FEE92E00E94210324
:100D6000982F92959770CAE08F709C9F800D1124E8
:100D7000809385028FEE92E00E942103982F929536
:100D80009F708F709C9F800D1124809386028FEE40
:100D900092E00E942103982F929593708F709C9FF0
:100DA000800D1124809387028FEE92E00E94210330
:100DB0008FEE92E00E942103982F92959F708F7082
:100DC0009C9F800D1124809384028FEE92E00E94FC
:100DD0002103982F92959F708F709C9F800D1124F6
:100DE000809383028FEE92E00E942103982F9295C8
:100DF0009F708F709C9F800D112480938202CF91F1
:100E00001F910F91FF90EF90DF90CF90089585EEA6
:100E10005CCF8091C7029091C802A091C902B091A5
:100E2000CA02892B8A2B8B2B09F455CF0E943D01D6
:100E30000091C7021091C8022091C9023091CA02E4
:100E40006C197D098E099F090617170728073907AE
:100E500008F041CF78CF87E04ACF85ED8093BC0082
:100E60008091C7029091C802A091C902B091CA02B4
:100E70000796A11DB11D23E0B695A7959795879577
:100E80002A95D1F72091BC0024FD03C01092C50221
:100E900008954091C7025091C8026091C9027091B3
:100EA000CA02452B462B472B69F30097A105B105D4
:100EB00041F02AE22A95F1F700C00197A109B10992
:100EC000E1CF8091C6020C9409021F93CF93DF9368
:100ED000EC01162F0E94E90D181739F0612FCE0191
:100EE000DF91CF911F910C94F10DDF91CF911F9164
:100EF00008950C94E90D0F931F93CF93DF938B010B
:100F00002CE0289FE001299FD00D1124CE010A96E4
:100F10000E947907853A99F00E94CB0480E00E94F4
:100F200074058AE591E00E94220464EC79E080E097
:100F300090E0DF91CF911F910F910C9462010E947C
:100F4000CB0480E00E94740584E691E00E942204B4
:100F5000C8010E94BF058DE691E00E942204CE01E7
:100F60000B960E9479070E94B605CE010C960E944E
:100F700079070E94B605CE010D960E9479070E945E
:100F8000B60581E00E947405CE0142960E94790761
:100F90000E94ED0586E691E00E942204CE01439670
:100FA0000E9479070E94ED0589E791E00E942204E2
:100FB000CE010F960E9479070E94ED0582E791E02D
:100FC0000E942204CE0140960E9479070E94ED05FE
:100FD00060EA7FE080E090E0ACCF1F920F920FB606
:100FE0000F9211242F933F938F939F93AF93BF93AF
:100FF0008091970290919802A0919902B0919A02E3
:101000003091960223E0230F2D3758F50196A11D4C
:10101000B11D209396028093970290939802A0931B
:101020009902B0939A0280919B0290919C02A091A8
:101030009D02B0919E020196A11DB11D80939B025D
:1010400090939C02A0939D02B0939E02BF91AF919A
:101050009F918F913F912F910F900FBE0F901F90F6
:10106000189526E8230F0296A11DB11DD2CF1F921D
:101070000F920FB60F9211242F933F934F935F93CC
:101080006F937F938F939F93AF93BF93EF93FF9350
:101090008091B900887F803609F44AC0F0F5883223
:1010A00009F4A7C018F5803109F49BC0B8F488236F
:1010B00009F4F9C0883009F494C0FF91EF91BF9111
:1010C000AF919F918F917F916F915F914F913F91E0
:1010D0002F910F900FBE0F901F901895883109F433
:1010E00088C0803251F78093C30214C0803409F461
:1010F0009DC040F48033B9F38833F9F68093C3027E
:1011000085ECB0C0803509F485C0883509F496C0F7
:10111000883499F60E942D07D0CF883909F48CC005
:1011200038F5883729F050F4883611F0803729F6E1
:1011300083E08093C50210927B0257C0883809F47F
:101140007BC0803919F0803809F0B7CF80917B02DD
:10115000803208F071C0E0917B0281E08E0F8093B5
:101160007B028091BB00F0E0E55AFD4F80833DC0DB
:10117000803B39F0E0F4803A09F479C0883A09F00C
:101180009CCF84E08093C50210925A0210925902BB
:10119000E0917E02F0917F020995809159028111C0
:1011A0000FC081E0809359021092390209C0803C3F
:1011B00009F4A6CF883C09F4A3CF883B09F07DCF82
:1011C000E0915A0281E08E0F80935A02F0E0E75CD2
:1011D000FD4F80818093BB0090915A02809159020B
:1011E00029C08091A0028093BB0085EC8093BC0055
:1011F00064CF9091C2028091C102981758F5E09196
:10120000C20281E08E0F8093C202F0E0EF55FD4FE5
:101210008081E9CFE091C20281E08E0F8093C2020B
:101220008091BB00F0E0EF55FD4F80839091C202AA
:101230008091C1029817C8F285E8D8CFE091C20228
:1012400081E08E0F8093C2028091BB00F0E0EF55E9
:10125000FD4F80838091C40281115CCF81E0809337
:101260009F0284EA8093BC001092C50226CF85ECD1
:101270008093BC001092C50280917B02803230F4D2
:10128000E0917B02F0E0E55AFD4F108260917B0215
:1012900070E0E0917C02F0917D028BE592E009958F
:1012A00010927B020ACF1092C30234CFEFEEF2E02D
:1012B0001382128288EE93E0A0E0B0E084839583ED
:1012C000A683B7838AE091E091838083EBEFF2E01D
:1012D000138212828CE191E0918380838AE084837F
:1012E0008FEF85838BE086838CE087838DE080871A
:1012F0008EE081878FE08287138614861586168696
:10130000178681E00C94D304789484B5826084BD00
:1013100084B5816084BD85B5826085BD85B58160F9
:1013200085BD80916E00816080936E001092810077
:101330008091810082608093810080918100816032
:1013400080938100809180008160809380008091F3
:10135000B10084608093B1008091B000816080937F
:10136000B00080917A00846080937A0080917A0046
:10137000826080937A0080917A00816080937A0005
:1013800080917A00806880937A001092C100109258
:101390008102109280021092CC021092EE020E9402
:1013A000EB0184E991E090937F0280937E0285E9CE
:1013B00091E090937D0280937C0261E082E00E9444
:1013C0000C0161E083E00E940C0161E084E00E9476
:1013D0000C0161E085E00E940C0160E085E00E9464
:1013E000DE0060E086E00E940C0160E087E00E9481
:1013F0000C0160E088E00E940C0160E089E00E943E
:101400000C010E949A0382E00E94D3040E94CB0444
:1014100081E08093CB0288E68093ED0260E08FEE5E
:1014200092E00E94680360E08FEE92E00E94680301
:1014300060E38FEE92E00E94680364E18FEE92E039
:101440000E94680361E08FEE92E00E94680360E30F
:101450008FEE92E00E94680364E08FEE92E00E94BB
:10146000680366E28FEE92E00E9468030E942A02FF
:1014700090E080E00E947907D82F81E090E00E9400
:101480007907C82FD23328F060E090E080E00E9416
:101490006507C33328F060E081E090E00E946507B3
:1014A0000E94A10592E0E92EF12C80E0A82E81E0B7
:1014B000B82EC0E0D12CC12C0E949A0368E070E0E5
:1014C00080E090E00E946201F5018081F2E0AF0EC1
:1014D000B11C61E00E94DE0069E170E080E090E014
:1014E0000E9462010E94B2038C0165E070E080E01E
:1014F00090E00E9462010E94B2034C010E949A0394
:1015000068E070E080E090E00E9462010115110542
:1015100009F46BC00815190509F067C0C114D1049E
:1015200089F40130110509F441C304301105E1F0DB
:1015300007301105C9F00A30110509F056C0CC2357
:10154000C9F053C021E0C216D10409F041C00230F5
:10155000110551F00530110539F00830110521F061
:101560000B30110509F041C0C1113FC00130110518
:1015700009F41EC3C2E302301105B9F1C3E303301D
:10158000110599F1C4E30430110579F1C5E3053083
:10159000110559F1C6E30630110539F1C7E30730EB
:1015A000110519F1C8E308301105F9F0C9E3093054
:1015B0001105D9F0CAE20A301105B9F0C0E30B30C9
:1015C000110599F0C0E00C30110579F4C3E20DC0AB
:1015D0000330110549F20630110531F209301105C9
:1015E00019F20C30110509F4BFCF3FEFC31AD30A2B
:1015F00083E0C816D10409F05FCF0E949A03CC2380
:1016000009F4D8C280919502811126C0C33239F401
:101610000E94A60310929202109291025BC18091E7
:10162000910290919202009709F0D2C1CA3231F52D
:101630000E94A60381E090E0909392028093910231
:101640000E94CB0480E00E94740588E691E00E942D
:10165000220481E0809395021092940210929302EA
:101660006FE070E080E090E00E94620180E090E036
:10167000892B09F41ACF0E94000017CF80ED8C0F40
:101680008A3038F780918F029091900284309105D2
:101690006CF4FC01E657FD4FC083019690939002D5
:1016A00080938F0286579D4FFC0110820E94CB04CD
:1016B00080E00E9474058CE491E00E94220481E0A5
:1016C0000E9474058AE892E00E94220480918F02B1
:1016D00090919002039709F0BCCF0E949A030E9458
:1016E000FD05B0908A02F1E3BF12F7C080918B0232
:1016F000823309F0FEC080918C02833309F0F9C077
:101700001092890210928802A0908C0290908B0215
:1017100090E080E00E947907C82FD0E081E090E05F
:101720000E947907C82ED12CC233D10514F0D0E025
:10173000C0E083E3C816D10414F0D12CC12C8CE096
:101740008C9F80018D9F100D112465EAC8010A96B7
:101750000E9465076B2DC8010B960E946507692DD5
:10176000C8010C960E9465076A2DC8010D960E945B
:1017700065076FE4C8010E960E94650760918702B5
:10178000C8010F960E94650760918602C8014096C5
:101790000E94650760918502C80141960E94650715
:1017A00060918402C80142960E946507609183029D
:1017B000C80143960E94650760918202C801449661
:1017C0000E94650760E0C80145960E946507BE015A
:1017D0006F5F7F4F6233710509F460E092E3C916D1
:1017E000D10419F0EFEFCE1ADE0A90E080E00E94FB
:1017F00065076C2D81E090E00E9465070E94CB0494
:1018000080E00E94740584E791E00E9422048AE847
:1018100092E00E94220481E00E9474058BE791E02F
:101820000E942204809187020E94ED0582E791E0E8
:101830000E942204809186020E94ED0582E791E0D9
:101840000E942204809185020E94ED0568EB7BE0F6
:1018500080E090E00E9462010E94CB0480E00E9440
:10186000740581E891E00E94220481E00E947405E1
:101870008BE891E00E94220461E085E00E94DE0096
:1018800060E177E280E090E00E94620160E085E044
:101890000E94DE000E94A6030E94CB0480E00E940A
:1018A000740584ED91E00E94220460ED77E080E011
:1018B00090E00E9462010E94CB0480E00E947405C7
:1018C00081EE91E00E94220468EE73E080E090E0F7
:1018D0000E9462010E94A105BCCE24E3B21249C05D
:1018E00080918B02853329F480918C02863309F430
:1018F00007CFC0918802D09189022196D0938902A6
:10190000C093880260E085E00E94DE0023970CF41B
:101910003EC00E949A0360E085E00E94DE000E94C3
:10192000CB0480E00E94740585E991E00E942204C6
:1019300081E00E94740584EA91E00E94220460E143
:1019400077E280E090E00E9462010E94CB0480E098
:101950000E94740580EB91E00E9422046CED75E01A
:1019600080E090E00E946201109289021092880249
:1019700091CF37E3B312BDCF80918B02883309F04A
:10198000B8CF80918C02893309F0B3CFB9CE0E94D1
:10199000CB0480E00E9474058FEB91E00E9422044A
:1019A00081E00E9474058AEC91E00E9422048091FB
:1019B0008802909189020E94BF0581ED91E00E940A
:1019C000220468E873E180E090E00E94620162CF47
:1019D0008130910509F04CC080ED8C0F8A3008F001
:1019E00038CE80918F0290919002843091056CF4F2
:1019F000FC01E657FD4FC0830196909390028093BF
:101A00008F0286579D4FFC01108281E00E94740571
:101A10008AE892E00E94220480918F0290919002C5
:101A2000039709F016CE80918A02893389F4809158
:101A30008B02893369F480918C02893349F40E94C6
:101A4000A603F0929202E09291020E94910501CECB
:101A50000E94CB0480E00E94740587EE91E00E9412
:101A6000220460ED77E080E090E00E946201D0CD3A
:101A7000029709F0EECDC133E1F481E090E00E94DD
:101A80007907C82F90E080E00E947907C150DD0BF4
:101A9000E29718F00E948205D2CF8150990B8F3FB8
:101AA000980711F481E390E061E070E00E947B0709
:101AB000C6CFC233B1F581E090E00E947907C82E0D
:101AC00090E080E00E947907D12C960121503109E5
:101AD0002233310598F4282F2150330BE90110E00F
:101AE00000E00C151D056CF4CE01D7FDC2960F5F0A
:101AF0001F4FB8010E947B072197F3CF0E948205F8
:101B00009ECF0E94CB0480E00E94740583EF91E099
:101B10000E94220460ED77E080E090E00E94620184
:101B20008ECFC33319F50E949A030E94FD050E94CF
:101B3000CB0480E00E9474058FEF91E00E942204A4
:101B400081E00E9474058BE891E00E94220461E02C
:101B500085E00E94DE0060E177E280E090E00E9494
:101B6000620160E085E00E94DE0052CDC03309F0E2
:101B700070CD60E090E080E00E94650760E081E069
:101B800090E00E946507CAE0D0E060E0CE010E94CC
:101B900065072C96C23632E0D307B9F70E94CB0412
:101BA00080E00E9474058AE092E0B2CFC1111DCDA1
:101BB000C1E31BCD80919302909194020196909382
:101BC00094028093930202970CF44ACD10929502EE
:101BD00043CDF999FECF92BD81BDF89A992780B582
:101BE0000895262FF999FECF1FBA92BD81BD20BD61
:101BF0000FB6F894FA9AF99A0FBE01960895A1E2E9
:101C00001A2EAA1BBB1BFD010DC0AA1FBB1FEE1F76
:101C1000FF1FA217B307E407F50720F0A21BB30BC1
:101C2000E40BF50B661F771F881F991F1A9469F73D
:101C300060957095809590959B01AC01BD01CF0199
:101C40000895EE0FFF1F0590F491E02D0994F8948C
:101C5000FFCF0200030004000000000068033B0304
:101C60009703110334032103120300000000B005A1
:101C700096019703C3014E6F20556E6C6F636B2006
:101C80004C6F6700313A4C61737420323A416C6C8E
:101C900000333A4578697420303A436C7200456EDF
:101CA00074657220436F64653A0030004C6F6720A2
:101CB0004572726F720023002F0041646D696E20BF
:101CC000436F64653A00436F64653A200054696D60
:101CD000652000414343455353204F4B00446F6FF1
:101CE00072204F50454E0053595354454D20424C9D
:101CF0004F434B4544005761697420313020736570
:101D00006300426C6F636B2046696E69736865643B
:101D10000057524F4E4720434F44450057726F6E55
:101D20006720002F3300526573657474696E672EE7
:101D30002E2E0052656164790057726F6E672041E4
:101D4000646D696E00456E64206F66204C6F67732A
:101D50000041444D494E2045584954004C6F67732B
:0A1D600020436C65617265640000A9
:107E0000112484B714BE81FFF0D085E080938100F7
:107E100082E08093C00088E18093C10086E0809377
:107E2000C20080E18093C4008EE0C9D0259A86E02C
:107E300020E33CEF91E0309385002093840096BBD3
:107E4000B09BFECF1D9AA8958150A9F7CC24DD24C4
:107E500088248394B5E0AB2EA1E19A2EF3E0BF2EE7
:107E6000A2D0813461F49FD0082FAFD0023811F036
:107E7000013811F484E001C083E08DD089C08234E0
:107E800011F484E103C0853419F485E0A6D080C0E4
:107E9000853579F488D0E82EFF2485D0082F10E0AE
:107EA000102F00270E291F29000F111F8ED06801E7
:107EB0006FC0863521F484E090D080E0DECF843638
:107EC00009F040C070D06FD0082F6DD080E0C81688
:107ED00080E7D80618F4F601B7BEE895C0E0D1E017
:107EE00062D089930C17E1F7F0E0CF16F0E7DF06D8
:107EF00018F0F601B7BEE89568D007B600FCFDCFD4
:107F0000A601A0E0B1E02C9130E011968C91119780
:107F100090E0982F8827822B932B1296FA010C0160
:107F200087BEE89511244E5F5F4FF1E0A038BF0790
:107F300051F7F601A7BEE89507B600FCFDCF97BE46
:107F4000E89526C08437B1F42ED02DD0F82E2BD052
:107F50003CD0F601EF2C8F010F5F1F4F84911BD097
:107F6000EA94F801C1F70894C11CD11CFA94CF0C13
:107F7000D11C0EC0853739F428D08EE10CD085E9AC
:107F80000AD08FE07ACF813511F488E018D01DD067
:107F900080E101D065CF982F8091C00085FFFCCF94
:107FA0009093C60008958091C00087FFFCCF809118
:107FB000C00084FD01C0A8958091C6000895E0E648
:107FC000F0E098E1908380830895EDDF803219F02E
:107FD00088E0F5DFFFCF84E1DECF1F93182FE3DFCA
:107FE0001150E9F7F2DF1F91089580E0E8DFEE27F6
:047FF000FF270994CA
:027FFE00040479
:00000001FF
